{
  "_format": "hh-sol-artifact-1",
  "contractName": "AliensGame",
  "sourceName": "contracts/game.sol",
  "abi": [
    {
      "inputs": [
        {
          "internalType": "uint8",
          "name": "_maxHp",
          "type": "uint8"
        },
        {
          "internalType": "uint8",
          "name": "_maxArmor",
          "type": "uint8"
        },
        {
          "internalType": "uint8",
          "name": "_minPunch",
          "type": "uint8"
        },
        {
          "internalType": "uint8",
          "name": "_maxPunch",
          "type": "uint8"
        },
        {
          "internalType": "uint8",
          "name": "_minKick",
          "type": "uint8"
        },
        {
          "internalType": "uint8",
          "name": "_maxKick",
          "type": "uint8"
        },
        {
          "internalType": "uint8",
          "name": "_fallPercent",
          "type": "uint8"
        },
        {
          "internalType": "uint8",
          "name": "_minFall",
          "type": "uint8"
        },
        {
          "internalType": "uint8",
          "name": "_maxFall",
          "type": "uint8"
        },
        {
          "internalType": "uint8",
          "name": "_minDefend",
          "type": "uint8"
        },
        {
          "internalType": "uint8",
          "name": "_maxDefend",
          "type": "uint8"
        },
        {
          "internalType": "uint8",
          "name": "_defaultDmg",
          "type": "uint8"
        }
      ],
      "stateMutability": "nonpayable",
      "type": "constructor"
    },
    {
      "inputs": [
        {
          "internalType": "address",
          "name": "opponent",
          "type": "address"
        },
        {
          "internalType": "bool",
          "name": "isPunchOrKick",
          "type": "bool"
        },
        {
          "internalType": "bool",
          "name": "isPunchOrDefend",
          "type": "bool"
        }
      ],
      "name": "action",
      "outputs": [],
      "stateMutability": "nonpayable",
      "type": "function"
    },
    {
      "inputs": [
        {
          "internalType": "address",
          "name": "",
          "type": "address"
        },
        {
          "internalType": "address",
          "name": "",
          "type": "address"
        }
      ],
      "name": "armors",
      "outputs": [
        {
          "internalType": "uint8",
          "name": "",
          "type": "uint8"
        }
      ],
      "stateMutability": "view",
      "type": "function"
    },
    {
      "inputs": [],
      "name": "defaultDmg",
      "outputs": [
        {
          "internalType": "uint8",
          "name": "",
          "type": "uint8"
        }
      ],
      "stateMutability": "view",
      "type": "function"
    },
    {
      "inputs": [],
      "name": "fallPercent",
      "outputs": [
        {
          "internalType": "uint8",
          "name": "",
          "type": "uint8"
        }
      ],
      "stateMutability": "view",
      "type": "function"
    },
    {
      "inputs": [
        {
          "internalType": "address",
          "name": "",
          "type": "address"
        },
        {
          "internalType": "address",
          "name": "",
          "type": "address"
        }
      ],
      "name": "hps",
      "outputs": [
        {
          "internalType": "uint8",
          "name": "",
          "type": "uint8"
        }
      ],
      "stateMutability": "view",
      "type": "function"
    },
    {
      "inputs": [
        {
          "internalType": "address",
          "name": "",
          "type": "address"
        },
        {
          "internalType": "address",
          "name": "",
          "type": "address"
        }
      ],
      "name": "isTurns",
      "outputs": [
        {
          "internalType": "bool",
          "name": "",
          "type": "bool"
        }
      ],
      "stateMutability": "view",
      "type": "function"
    },
    {
      "inputs": [],
      "name": "maxArmor",
      "outputs": [
        {
          "internalType": "uint8",
          "name": "",
          "type": "uint8"
        }
      ],
      "stateMutability": "view",
      "type": "function"
    },
    {
      "inputs": [],
      "name": "maxDefend",
      "outputs": [
        {
          "internalType": "uint8",
          "name": "",
          "type": "uint8"
        }
      ],
      "stateMutability": "view",
      "type": "function"
    },
    {
      "inputs": [],
      "name": "maxFall",
      "outputs": [
        {
          "internalType": "uint8",
          "name": "",
          "type": "uint8"
        }
      ],
      "stateMutability": "view",
      "type": "function"
    },
    {
      "inputs": [],
      "name": "maxHp",
      "outputs": [
        {
          "internalType": "uint8",
          "name": "",
          "type": "uint8"
        }
      ],
      "stateMutability": "view",
      "type": "function"
    },
    {
      "inputs": [],
      "name": "maxKick",
      "outputs": [
        {
          "internalType": "uint8",
          "name": "",
          "type": "uint8"
        }
      ],
      "stateMutability": "view",
      "type": "function"
    },
    {
      "inputs": [],
      "name": "maxPunch",
      "outputs": [
        {
          "internalType": "uint8",
          "name": "",
          "type": "uint8"
        }
      ],
      "stateMutability": "view",
      "type": "function"
    },
    {
      "inputs": [],
      "name": "minDefend",
      "outputs": [
        {
          "internalType": "uint8",
          "name": "",
          "type": "uint8"
        }
      ],
      "stateMutability": "view",
      "type": "function"
    },
    {
      "inputs": [],
      "name": "minFall",
      "outputs": [
        {
          "internalType": "uint8",
          "name": "",
          "type": "uint8"
        }
      ],
      "stateMutability": "view",
      "type": "function"
    },
    {
      "inputs": [],
      "name": "minKick",
      "outputs": [
        {
          "internalType": "uint8",
          "name": "",
          "type": "uint8"
        }
      ],
      "stateMutability": "view",
      "type": "function"
    },
    {
      "inputs": [],
      "name": "minPunch",
      "outputs": [
        {
          "internalType": "uint8",
          "name": "",
          "type": "uint8"
        }
      ],
      "stateMutability": "view",
      "type": "function"
    },
    {
      "inputs": [
        {
          "internalType": "address",
          "name": "opponent",
          "type": "address"
        }
      ],
      "name": "ready",
      "outputs": [],
      "stateMutability": "nonpayable",
      "type": "function"
    }
  ],
  "bytecode": "0x608060405234801561001057600080fd5b50604051610d98380380610d9883398101604081905261002f91610199565b8b6000806101000a81548160ff021916908360ff1602179055508a600060016101000a81548160ff021916908360ff16021790555089600060026101000a81548160ff021916908360ff16021790555088600060036101000a81548160ff021916908360ff16021790555087600060046101000a81548160ff021916908360ff16021790555086600060056101000a81548160ff021916908360ff16021790555085600060066101000a81548160ff021916908360ff16021790555084600060076101000a81548160ff021916908360ff16021790555083600060086101000a81548160ff021916908360ff16021790555082600060096101000a81548160ff021916908360ff160217905550816000600a6101000a81548160ff021916908360ff160217905550806000600b6101000a81548160ff021916908360ff160217905550505050505050505050505050610275565b805160ff8116811461019457600080fd5b919050565b6000806000806000806000806000806000806101808d8f0312156101bc57600080fd5b6101c58d610183565b9b506101d360208e01610183565b9a506101e160408e01610183565b99506101ef60608e01610183565b98506101fd60808e01610183565b975061020b60a08e01610183565b965061021960c08e01610183565b955061022760e08e01610183565b94506102366101008e01610183565b93506102456101208e01610183565b92506102546101408e01610183565b91506102636101608e01610183565b90509295989b509295989b509295989b565b610b14806102846000396000f3fe608060405234801561001057600080fd5b506004361061010b5760003560e01c80639a55cd75116100a2578063b535b02711610071578063b535b02714610272578063b68fa6be14610286578063c16fd0901461029a578063cf346793146102ae578063f0d6c2ef146102c257600080fd5b80639a55cd751461020f578063a3147df014610222578063a34dbf8f14610250578063acaeb9af1461026557600080fd5b80632833aa3a116100de5780632833aa3a146101be57806385337115146101d35780639989ee99146101e957806399d65cb4146101fd57600080fd5b80631fbe3a871461011057806322eeab501461015357806323f073c014610193578063259c1f79146101a7575b600080fd5b61013e61011e3660046109d3565b600360209081526000928352604080842090915290825290205460ff1681565b60405190151581526020015b60405180910390f35b6101816101613660046109d3565b600160209081526000928352604080842090915290825290205460ff1681565b60405160ff909116815260200161014a565b60005461018190600160401b900460ff1681565b600054610181906601000000000000900460ff1681565b6101d16101cc366004610a16565b6102d5565b005b6000546101819065010000000000900460ff1681565b60005461018190600160581b900460ff1681565b60005461018190610100900460ff1681565b6000546101819062010000900460ff1681565b6101816102303660046109d3565b600260209081526000928352604080842090915290825290205460ff1681565b60005461018190640100000000900460ff1681565b6000546101819060ff1681565b60005461018190600160501b900460ff1681565b600054610181906301000000900460ff1681565b60005461018190600160381b900460ff1681565b60005461018190600160481b900460ff1681565b6101d16102d0366004610a59565b610822565b3360009081526003602090815260408083206001600160a01b038716845290915290205460ff161561081d573360009081526003602090815260408083206001600160a01b03871684529091529020805460ff1916905581156106a15780156104ee57600080546103589060ff620100008204811691630100000090041661097f565b6001600160a01b038516600090815260026020908152604080832033845290915290205490915060ff90811690821610156103a05750600054600160581b900460ff166103d4565b6001600160a01b03841660009081526002602090815260408083203384529091529020546103d19060ff1682610a8a565b90505b6001600160a01b038416600090815260016020908152604080832033845290915290205460ff90811690821610610466576001600160a01b038416600081815260016020908152604080832033808552908352818420805460ff1990811690915560028085528386209686529584528285208054821690559483528184209084529091529020805490911690556104e8565b6001600160a01b03841660009081526001602090815260408083203384529091528120805483929061049c90849060ff16610a8a565b825460ff9182166101009390930a9283029190920219909116179055506001600160a01b03841660009081526003602090815260408083203384529091529020805460ff191660011790555b50505050565b600080546601000000000000900460ff169061050b90606361097f565b60ff16101561067d57600080546105359060ff600160381b8204811691600160401b90041661097f565b3360009081526002602090815260408083206001600160a01b038916845290915290205490915060ff908116908216101561057d5750600054600160581b900460ff166105b1565b3360009081526002602090815260408083206001600160a01b03881684529091529020546105ae9060ff1682610a8a565b90505b3360009081526001602090815260408083206001600160a01b038816845290915290205460ff90811690821610610647573360008181526001602090815260408083206001600160a01b038916808552908352818420805460ff199081169091558585526002808552838620928652918452828520805482169055908352818420948452939091529020805490911690556104e8565b3360009081526001602090815260408083206001600160a01b03881684529091528120805483929061049c90849060ff16610a8a565b600080546103589060ff64010000000082048116916501000000000090041661097f565b80156107bc57600080546106c89060ff600160481b8204811691600160501b90041661097f565b600080543382526002602090815260408084206001600160a01b038a1685529091529091205491925060ff61010090910481169161070891849116610aa3565b60ff16111561075257600080543382526002602090815260408084206001600160a01b0389168552909152909120805461010090920460ff1660ff19909216919091179055610788565b3360009081526002602090815260408083206001600160a01b03881684529091528120805483929061049c90849060ff16610aa3565b506001600160a01b03831660009081526003602090815260408083203384529091529020805460ff19166001179055505050565b3360008181526001602090815260408083206001600160a01b038816808552908352818420805460ff199081169091558585526002808552838620928652918452828520805482169055908352818420948452939091529020805490911690555b505050565b3360009081526001602090815260408083206001600160a01b038516845290915290205460ff16158061087957506001600160a01b038116600090815260016020908152604080832033845290915290205460ff16155b1561097c576001600160a01b038116600090815260036020908152604080832033845290915290205460ff161561094d5760006108b86000600161097f565b3360008181526003602081815260408084206001600160a01b038916808652908352818520805460ff1990811660ff998a1615908117909255948452828620878752845282862080548616911591909117905584546001808552838720928752918452828620805486169189169190911790558454908352818520958552949091529091208054909116919092161790555050565b3360009081526003602090815260408083206001600160a01b03851684529091529020805460ff191660011790555b50565b60008261098d836001610aa3565b6109979190610a8a565b6109a49060ff1642610abc565b6109ae9084610aa3565b90505b92915050565b80356001600160a01b03811681146109ce57600080fd5b919050565b600080604083850312156109e657600080fd5b6109ef836109b7565b91506109fd602084016109b7565b90509250929050565b803580151581146109ce57600080fd5b600080600060608486031215610a2b57600080fd5b610a34846109b7565b9250610a4260208501610a06565b9150610a5060408501610a06565b90509250925092565b600060208284031215610a6b57600080fd5b6109ae826109b7565b634e487b7160e01b600052601160045260246000fd5b60ff82811682821603908111156109b1576109b1610a74565b60ff81811683821601908111156109b1576109b1610a74565b600082610ad957634e487b7160e01b600052601260045260246000fd5b50069056fea264697066735822122058210266ab4e587f2b60766a3bf17f21350aad5054e86c17bf94ff7f9ea51c5e64736f6c634300081b0033",
  "linkReferences": {},
  "deployedLinkReferences": {}
}